:100000000C942A000C9430020C9457020C947E023B
:100010000C9492030C9469030C9447000C944700D1
:100020000C9447000C9447000C94CE020C94A5024B
:100030000C9447000C9447000C9447000C94470024
:100040000C9416010C9447000C9447000C94470044
:100050000C94470011241FBECFE5D8E0DEBFCDBF12
:1000600010E0A0E6B0E0ECEDF7E002C005900D92E4
:10007000A036B107D9F720E0A0E6B0E001C01D929C
:10008000A237B207E1F70E9449000C94EC030C94EC
:10009000000086E40E9463000E94BF002FEF31EE53
:1000A00044E0215030404040E1F700C000000A9792
:1000B00028F462E082E00E94A100EECF62E082E0DC
:1000C0000E94B000E9CFCF93C82F41E064E083E005
:1000D0000E944A0141E063E082E00E944A0141E05F
:1000E00064E082E00E944A016C2F81E00E94F702E6
:1000F00041E063E082E00E94BD0140E064E082E014
:100100000E94BD0141E065E083E00E944A0141E0B8
:1001100065E082E00E944A0141E066E082E00E94E0
:100120004A016C2F80E00E94F70241E065E082E026
:100130000E94BD0140E066E082E00E94BD01CF91D7
:100140000895CF93DF93C82FD62F41E00E944A0134
:1001500041E06D2F8C2F0E94BD01DF91CF9108955A
:10016000CF93DF93C82FD62F41E00E944A0140E091
:100170006D2F8C2F0E94BD01DF91CF910895CF93F9
:10018000DF9300D000D0CDB7DEB726B537B581E01C
:1001900090E002C0880F991F2A95E2F798B7892B43
:1001A00088BF41E060E080E00E944A0140E066E0F4
:1001B00083E00E944A0141E060E080E00E94BD01CE
:1001C00085E38A95F1F7000040E060E080E00E945E
:1001D000BD011A8219821C821B82BE016D5F7F4F96
:1001E000CE0101960E9445030E9442030E943803FB
:1001F0002B813C8189819A81281B390BA8E2B7E8C1
:100200000E94DD0320E038E448EE51E00E94BB0389
:100210002233310518F082E390E001C0C9010F904C
:100220000F900F900F90DF91CF9108951F920F9232
:100230000FB60F9211242F933F934F935F936F93B9
:100240007F938F939F93AF93BF93EF93FF93E0912F
:100250006200F0916300309761F0A0916000B0916E
:10026000610084B195B18D939C93099586B1877F88
:1002700086B9FF91EF91BF91AF919F918F917F913F
:100280006F915F914F913F912F910F900FBE0F9003
:100290001F901895423008F06FC04130A1F58130B1
:1002A00089F028F08230C9F0833011F108952AB323
:1002B00081E090E002C0880F991F6A95E2F7822BD7
:1002C0008ABB089527B381E090E002C0880F991F90
:1002D0006A95E2F7822B87BB089524B381E090E012
:1002E00002C0880F991F6A95E2F7822B84BB08959C
:1002F00021B381E090E002C0880F991F6A95E2F770
:10030000822B81BB0895411137C0813091F028F0D4
:100310008230D9F0833029F108952AB381E090E04A
:1003200002C0880F991F6A95E2F7809582238ABBE5
:10033000089527B381E090E002C0880F991F6A9565
:10034000E2F78095822387BB089524B381E090E093
:1003500002C0880F991F6A95E2F78095822384BBBB
:10036000089521B381E090E002C0880F991F6A953B
:10037000E2F78095822381BB0895423008F06FC078
:100380004130A1F5813089F028F08230C9F0833006
:1003900011F108952BB381E090E002C0880F991FFE
:1003A0006A95E2F7822B8BBB089528B381E090E039
:1003B00002C0880F991F6A95E2F7822B88BB0895C7
:1003C00025B381E090E002C0880F991F6A95E2F79B
:1003D000822B85BB089522B381E090E002C0880F94
:1003E000991F6A95E2F7822B82BB0895411137C0AD
:1003F000813091F028F08230D9F0833029F10895CE
:100400002BB381E090E002C0880F991F6A95E2F754
:10041000809582238BBB089528B381E090E002C0D1
:10042000880F991F6A95E2F78095822388BB08950B
:1004300025B381E090E002C0880F991F6A95E2F72A
:100440008095822385BB089522B381E090E002C0AD
:10045000880F991F6A95E2F78095822382BB0895E1
:100460001F920F920FB60F9211242F933F934F9329
:100470005F936F937F938F939F93AF93BF93EF930C
:10048000FF93E0916400F09165000995FF91EF9171
:10049000BF91AF919F918F917F916F915F914F919C
:1004A0003F912F910F900FBE0F901F9018951F92A4
:1004B0000F920FB60F9211242F933F934F935F9398
:1004C0006F937F938F939F93AF93BF93EF93FF931C
:1004D000E0916600F09167000995FF91EF91BF915F
:1004E000AF919F918F917F916F915F914F913F91CC
:1004F0002F910F900FBE0F901F9018951F920F9283
:100500000FB60F9211242F933F934F935F936F93E6
:100510007F938F939F93AF93BF93EF93FF93E0915C
:100520006800F09169000995FF91EF91BF91AF913B
:100530009F918F917F916F915F914F913F912F91FB
:100540000F900FBE0F901F9018951F920F920FB62D
:100550000F9211242F933F934F935F936F937F9349
:100560008F939F93AF93BF93EF93FF93E0916A00B4
:10057000F0916B00309709F00995FF91EF91BF91D1
:10058000AF919F918F917F916F915F914F913F912B
:100590002F910F900FBE0F901F9018951F920F92E2
:1005A0000FB60F9211242F933F934F935F936F9346
:1005B0007F938F939F93AF93BF93EF93FF93E091BC
:1005C0006C00F0916D00309709F00995FF91EF9163
:1005D000BF91AF919F918F917F916F915F914F915B
:1005E0003F912F910F900FBE0F901F9018959EB5C1
:1005F0009F7E9EBD9EB598609EBD9FB592609FBD3B
:100600009FB591609FBD9EB5987F9EBD9EB592603F
:100610009EBD882319F08130B1F008958FB58068B0
:100620008FBD8FB58F7B8FBD70E0CB01880F991F79
:10063000660F771F660F771F660F771F680F791F8A
:100640007BBD6ABD08958FB580628FBD8FB58F7EEB
:100650008FBD70E0CB01880F991F660F771F660F63
:10066000771F660F771F680F791F79BD68BD0895E2
:100670008EB58B7F8EBD8EB58D7F8EBD8EB58E7FF8
:100680008EBD08951FBC1EBC089521EC2EBD08B67A
:1006900005FEFDCF26B537B5FC013183208326B595
:1006A00037B581E090E002C0880F991F2A95E2F7E4
:1006B00098B7892B88BF81E88EBD08B605FEFDCFAF
:1006C00086B597B5FB019183808388B7806288BF28
:1006D00008951F920F920FB60F9211242F933F93FC
:1006E0004F935F936F937F938F939F93AF93BF933A
:1006F000EF93FF93E0916E00F0916F00309709F057
:100700000995FF91EF91BF91AF919F918F917F914B
:100710006F915F914F913F912F910F900FBE0F906E
:100720001F9018951F920F920FB60F9211242F93BE
:100730003F934F935F936F937F938F939F93AF9369
:10074000BF93EF93FF93E0917000F09171003097A9
:1007500009F00995FF91EF91BF91AF919F918F9112
:100760007F916F915F914F913F912F910F900FBEAD
:100770000F901F901895A1E21A2EAA1BBB1BFD011A
:100780000DC0AA1FBB1FEE1FFF1FA217B307E40770
:10079000F50720F0A21BB30BE40BF50B661F771FC8
:1007A000881F991F1A9469F76095709580959095A8
:1007B0009B01AC01BD01CF010895A29FB001B39F81
:1007C000C001A39F700D811D1124911DB29F700D5A
:0C07D000811D1124911D0895F894FFCFA5
:00000001FF
